{
  "transactions": [
    {
      "hash": "0x03540987b3177a207859cd6033a1f19ee6c71efbf3f1e2b45f52ea400cabb777",
      "transactionType": "CALL",
      "contractName": "LinkToken",
      "contractAddress": "0x779877a7b0d9e8603169ddbd7836e478b4624789",
      "function": "transferAndCall(address,uint256,bytes)",
      "arguments": [
        "0x9DdfaCa8183c41ad55329BdeeD9F6A8d53168B1B",
        "3000000000000000000",
        "0x0f05f7834b777a10de7ac79deb098c9090074567b5c3c380da705547a4339a56"
      ],
      "transaction": {
        "from": "0xadf00a2476c77163b607af6e55a6a90185ae33f6",
        "to": "0x779877a7b0d9e8603169ddbd7836e478b4624789",
        "gas": "0x1c1ff",
        "value": "0x0",
        "input": "0x4000aea00000000000000000000000009ddfaca8183c41ad55329bdeed9f6a8d53168b1b00000000000000000000000000000000000000000000000029a2241af62c0000000000000000000000000000000000000000000000000000000000000000006000000000000000000000000000000000000000000000000000000000000000200f05f7834b777a10de7ac79deb098c9090074567b5c3c380da705547a4339a56",
        "nonce": "0xc",
        "chainId": "0xaa36a7"
      },
      "additionalContracts": [],
      "isFixedGasLimit": false
    }
  ],
  "receipts": [
    {
      "status": "0x1",
      "cumulativeGasUsed": "0x2be357e",
      "logs": [
        {
          "address": "0x779877a7b0d9e8603169ddbd7836e478b4624789",
          "topics": [
            "0xddf252ad1be2c89b69c2b068fc378daa952ba7f163c4a11628f55a4df523b3ef",
            "0x000000000000000000000000adf00a2476c77163b607af6e55a6a90185ae33f6",
            "0x0000000000000000000000009ddfaca8183c41ad55329bdeed9f6a8d53168b1b"
          ],
          "data": "0x00000000000000000000000000000000000000000000000029a2241af62c0000",
          "blockHash": "0x694f0689935c082118d86e179cfb7fd8df9ace071b05f09a5ff58102648d53cf",
          "blockNumber": "0x880e0a",
          "blockTimestamp": "0x6891ada0",
          "transactionHash": "0x03540987b3177a207859cd6033a1f19ee6c71efbf3f1e2b45f52ea400cabb777",
          "transactionIndex": "0x372",
          "logIndex": "0x18e",
          "removed": false
        },
        {
          "address": "0x779877a7b0d9e8603169ddbd7836e478b4624789",
          "topics": [
            "0xe19260aff97b920c7df27010903aeb9c8d2be5d310a2c67824cf3f15396e4c16",
            "0x000000000000000000000000adf00a2476c77163b607af6e55a6a90185ae33f6",
            "0x0000000000000000000000009ddfaca8183c41ad55329bdeed9f6a8d53168b1b"
          ],
          "data": "0x00000000000000000000000000000000000000000000000029a2241af62c0000000000000000000000000000000000000000000000000000000000000000004000000000000000000000000000000000000000000000000000000000000000200f05f7834b777a10de7ac79deb098c9090074567b5c3c380da705547a4339a56",
          "blockHash": "0x694f0689935c082118d86e179cfb7fd8df9ace071b05f09a5ff58102648d53cf",
          "blockNumber": "0x880e0a",
          "blockTimestamp": "0x6891ada0",
          "transactionHash": "0x03540987b3177a207859cd6033a1f19ee6c71efbf3f1e2b45f52ea400cabb777",
          "transactionIndex": "0x372",
          "logIndex": "0x18f",
          "removed": false
        },
        {
          "address": "0x9ddfaca8183c41ad55329bdeed9f6a8d53168b1b",
          "topics": [
            "0x1ced9348ff549fceab2ac57cd3a9de38edaaab274b725ee82c23e8fc8c4eec7a",
            "0x0f05f7834b777a10de7ac79deb098c9090074567b5c3c380da705547a4339a56"
          ],
          "data": "0x000000000000000000000000000000000000000000000000000000000000000000000000000000000000000000000000000000000000000029a2241af62c0000",
          "blockHash": "0x694f0689935c082118d86e179cfb7fd8df9ace071b05f09a5ff58102648d53cf",
          "blockNumber": "0x880e0a",
          "blockTimestamp": "0x6891ada0",
          "transactionHash": "0x03540987b3177a207859cd6033a1f19ee6c71efbf3f1e2b45f52ea400cabb777",
          "transactionIndex": "0x372",
          "logIndex": "0x190",
          "removed": false
        }
      ],
      "logsBloom": "0x00000004000000000000000000000000000000000020000000000000020000000000000000000000000000000000000000000000000000000000000000000000000000000000000000000008000000000000000000000008000020000020800008000000000000000000000000000000000000000000000000000010000040000000000000000000000000050000800000000020000000000000000000000000000000000000000000000000010000000000000000000000000004000000000000000002000000000000000000000000000010000000000108000000000000000090000000000000800000000000000000000000000000000000000000000000",
      "type": "0x2",
      "transactionHash": "0x03540987b3177a207859cd6033a1f19ee6c71efbf3f1e2b45f52ea400cabb777",
      "transactionIndex": "0x372",
      "blockHash": "0x694f0689935c082118d86e179cfb7fd8df9ace071b05f09a5ff58102648d53cf",
      "blockNumber": "0x880e0a",
      "gasUsed": "0x133b1",
      "effectiveGasPrice": "0x2b91c7",
      "from": "0xadf00a2476c77163b607af6e55a6a90185ae33f6",
      "to": "0x779877a7b0d9e8603169ddbd7836e478b4624789",
      "contractAddress": null
    }
  ],
  "libraries": [],
  "pending": [],
  "returns": {},
  "timestamp": 1754377633,
  "chain": 11155111,
  "commit": "9389158"
}